{
  "contractName": "access_control",
  "abi": [
    {
      "anonymous": false,
      "inputs": [
        {
          "indexed": false,
          "internalType": "uint256",
          "name": "deviceId",
          "type": "uint256"
        }
      ],
      "name": "DeviceDeRegistered",
      "type": "event"
    },
    {
      "anonymous": false,
      "inputs": [
        {
          "indexed": false,
          "internalType": "string",
          "name": "name",
          "type": "string"
        },
        {
          "indexed": false,
          "internalType": "uint256",
          "name": "deviceId",
          "type": "uint256"
        },
        {
          "indexed": false,
          "internalType": "address",
          "name": "deviceAddress",
          "type": "address"
        }
      ],
      "name": "DeviceRegistered",
      "type": "event"
    },
    {
      "anonymous": false,
      "inputs": [
        {
          "indexed": false,
          "internalType": "uint256",
          "name": "deviceId",
          "type": "uint256"
        },
        {
          "indexed": false,
          "internalType": "address",
          "name": "managerAddress",
          "type": "address"
        }
      ],
      "name": "ManagerAddedToDevice",
      "type": "event"
    },
    {
      "anonymous": false,
      "inputs": [
        {
          "indexed": false,
          "internalType": "address",
          "name": "managerAddress",
          "type": "address"
        }
      ],
      "name": "ManagerDeRegistered",
      "type": "event"
    },
    {
      "anonymous": false,
      "inputs": [
        {
          "indexed": false,
          "internalType": "string",
          "name": "name",
          "type": "string"
        },
        {
          "indexed": false,
          "internalType": "address",
          "name": "managerAddress",
          "type": "address"
        }
      ],
      "name": "ManagerRegistered",
      "type": "event"
    },
    {
      "anonymous": false,
      "inputs": [
        {
          "indexed": false,
          "internalType": "uint256",
          "name": "deviceId",
          "type": "uint256"
        },
        {
          "indexed": false,
          "internalType": "address",
          "name": "managerAddress",
          "type": "address"
        }
      ],
      "name": "ManagerRemovedFromDevice",
      "type": "event"
    },
    {
      "anonymous": false,
      "inputs": [
        {
          "indexed": false,
          "internalType": "uint256",
          "name": "deviceId",
          "type": "uint256"
        },
        {
          "indexed": false,
          "internalType": "address",
          "name": "managerAddress",
          "type": "address"
        }
      ],
      "name": "PermissionRevoked",
      "type": "event"
    },
    {
      "anonymous": false,
      "inputs": [
        {
          "indexed": false,
          "internalType": "address",
          "name": "managerAddress",
          "type": "address"
        },
        {
          "indexed": false,
          "internalType": "address",
          "name": "constrainedDeviceAddress",
          "type": "address"
        },
        {
          "indexed": false,
          "internalType": "address",
          "name": "newDeviceAddress",
          "type": "address"
        },
        {
          "indexed": false,
          "internalType": "uint256",
          "name": "resource",
          "type": "uint256"
        },
        {
          "indexed": false,
          "internalType": "string",
          "name": "accessRights",
          "type": "string"
        },
        {
          "indexed": false,
          "internalType": "uint256",
          "name": "expirationBlock",
          "type": "uint256"
        }
      ],
      "name": "RuleAdded",
      "type": "event"
    },
    {
      "inputs": [
        {
          "internalType": "uint256",
          "name": "",
          "type": "uint256"
        }
      ],
      "name": "devices",
      "outputs": [
        {
          "internalType": "string",
          "name": "name",
          "type": "string"
        },
        {
          "internalType": "uint256",
          "name": "deviceId",
          "type": "uint256"
        },
        {
          "internalType": "address",
          "name": "deviceAddress",
          "type": "address"
        }
      ],
      "stateMutability": "view",
      "type": "function",
      "constant": true
    },
    {
      "inputs": [
        {
          "internalType": "address",
          "name": "",
          "type": "address"
        }
      ],
      "name": "managers",
      "outputs": [
        {
          "internalType": "string",
          "name": "name",
          "type": "string"
        },
        {
          "internalType": "address",
          "name": "managerAddress",
          "type": "address"
        }
      ],
      "stateMutability": "view",
      "type": "function",
      "constant": true
    },
    {
      "inputs": [
        {
          "internalType": "uint256",
          "name": "",
          "type": "uint256"
        }
      ],
      "name": "registeredDevicesIds",
      "outputs": [
        {
          "internalType": "uint256",
          "name": "",
          "type": "uint256"
        }
      ],
      "stateMutability": "view",
      "type": "function",
      "constant": true
    },
    {
      "inputs": [
        {
          "internalType": "uint256",
          "name": "",
          "type": "uint256"
        }
      ],
      "name": "registeredManagerAddresses",
      "outputs": [
        {
          "internalType": "address",
          "name": "",
          "type": "address"
        }
      ],
      "stateMutability": "view",
      "type": "function",
      "constant": true
    },
    {
      "inputs": [
        {
          "internalType": "address",
          "name": "",
          "type": "address"
        },
        {
          "internalType": "address",
          "name": "",
          "type": "address"
        }
      ],
      "name": "rules",
      "outputs": [
        {
          "internalType": "address",
          "name": "managerAddress",
          "type": "address"
        },
        {
          "internalType": "address",
          "name": "constrainedDeviceAddress",
          "type": "address"
        },
        {
          "internalType": "address",
          "name": "newDeviceAddress",
          "type": "address"
        },
        {
          "internalType": "uint256",
          "name": "resource",
          "type": "uint256"
        },
        {
          "internalType": "string",
          "name": "accessRights",
          "type": "string"
        },
        {
          "internalType": "uint256",
          "name": "expirationBlock",
          "type": "uint256"
        }
      ],
      "stateMutability": "view",
      "type": "function",
      "constant": true
    },
    {
      "inputs": [
        {
          "internalType": "address",
          "name": "managerAddress",
          "type": "address"
        },
        {
          "internalType": "string",
          "name": "name",
          "type": "string"
        }
      ],
      "name": "registerManager",
      "outputs": [],
      "stateMutability": "nonpayable",
      "type": "function"
    },
    {
      "inputs": [
        {
          "internalType": "string",
          "name": "name",
          "type": "string"
        },
        {
          "internalType": "uint256",
          "name": "deviceId",
          "type": "uint256"
        },
        {
          "internalType": "address",
          "name": "deviceAddress",
          "type": "address"
        }
      ],
      "name": "registerDevice",
      "outputs": [],
      "stateMutability": "nonpayable",
      "type": "function"
    },
    {
      "inputs": [
        {
          "internalType": "uint256",
          "name": "deviceId",
          "type": "uint256"
        },
        {
          "internalType": "address",
          "name": "managerAddress",
          "type": "address"
        }
      ],
      "name": "addManagerToDevice",
      "outputs": [],
      "stateMutability": "nonpayable",
      "type": "function"
    },
    {
      "inputs": [
        {
          "internalType": "uint256",
          "name": "deviceId",
          "type": "uint256"
        },
        {
          "internalType": "address",
          "name": "managerAddress",
          "type": "address"
        }
      ],
      "name": "removeManagerFromDevice",
      "outputs": [],
      "stateMutability": "nonpayable",
      "type": "function"
    },
    {
      "inputs": [
        {
          "internalType": "address",
          "name": "managerAddress",
          "type": "address"
        },
        {
          "internalType": "address",
          "name": "constrainedDeviceAddress",
          "type": "address"
        },
        {
          "internalType": "address",
          "name": "newDeviceAddress",
          "type": "address"
        },
        {
          "internalType": "uint256",
          "name": "resourceAccess",
          "type": "uint256"
        },
        {
          "internalType": "string",
          "name": "accessRights",
          "type": "string"
        },
        {
          "internalType": "uint256",
          "name": "expirationBlocks",
          "type": "uint256"
        }
      ],
      "name": "addRule",
      "outputs": [
        {
          "internalType": "bool",
          "name": "",
          "type": "bool"
        }
      ],
      "stateMutability": "nonpayable",
      "type": "function"
    },
    {
      "inputs": [
        {
          "internalType": "address",
          "name": "constrainedDeviceAddress",
          "type": "address"
        },
        {
          "internalType": "address",
          "name": "newDeviceAddress",
          "type": "address"
        }
      ],
      "name": "isAllowedDevice",
      "outputs": [
        {
          "internalType": "bool",
          "name": "",
          "type": "bool"
        }
      ],
      "stateMutability": "view",
      "type": "function",
      "constant": true
    },
    {
      "inputs": [
        {
          "internalType": "address",
          "name": "managerAddress",
          "type": "address"
        }
      ],
      "name": "deregisterManager",
      "outputs": [],
      "stateMutability": "nonpayable",
      "type": "function"
    },
    {
      "inputs": [
        {
          "internalType": "uint256",
          "name": "deviceId",
          "type": "uint256"
        }
      ],
      "name": "removeDevice",
      "outputs": [],
      "stateMutability": "nonpayable",
      "type": "function"
    },
    {
      "inputs": [
        {
          "internalType": "address",
          "name": "manager",
          "type": "address"
        },
        {
          "internalType": "address",
          "name": "constrainedDevice",
          "type": "address"
        },
        {
          "internalType": "address",
          "name": "newDevice",
          "type": "address"
        }
      ],
      "name": "revokePermission",
      "outputs": [],
      "stateMutability": "nonpayable",
      "type": "function"
    },
    {
      "inputs": [
        {
          "internalType": "address",
          "name": "managerAddress",
          "type": "address"
        }
      ],
      "name": "getManager",
      "outputs": [
        {
          "internalType": "string",
          "name": "",
          "type": "string"
        },
        {
          "internalType": "address",
          "name": "",
          "type": "address"
        }
      ],
      "stateMutability": "view",
      "type": "function",
      "constant": true
    },
    {
      "inputs": [
        {
          "internalType": "address",
          "name": "constrainedDevice",
          "type": "address"
        },
        {
          "internalType": "address",
          "name": "newDevice",
          "type": "address"
        }
      ],
      "name": "queryPermission",
      "outputs": [
        {
          "internalType": "bool",
          "name": "",
          "type": "bool"
        },
        {
          "internalType": "string",
          "name": "",
          "type": "string"
        },
        {
          "internalType": "uint256",
          "name": "",
          "type": "uint256"
        },
        {
          "internalType": "uint256",
          "name": "",
          "type": "uint256"
        }
      ],
      "stateMutability": "view",
      "type": "function",
      "constant": true
    },
    {
      "inputs": [
        {
          "internalType": "address",
          "name": "deviceAddress",
          "type": "address"
        }
      ],
      "name": "isDeviceRegistered",
      "outputs": [
        {
          "internalType": "bool",
          "name": "",
          "type": "bool"
        },
        {
          "internalType": "string",
          "name": "",
          "type": "string"
        },
        {
          "internalType": "uint256",
          "name": "",
          "type": "uint256"
        },
        {
          "internalType": "address",
          "name": "",
          "type": "address"
        },
        {
          "internalType": "address[]",
          "name": "",
          "type": "address[]"
        }
      ],
      "stateMutability": "view",
      "type": "function",
      "constant": true
    },
    {
      "inputs": [],
      "name": "getDeviceIds",
      "outputs": [
        {
          "internalType": "uint256[]",
          "name": "",
          "type": "uint256[]"
        }
      ],
      "stateMutability": "view",
      "type": "function",
      "constant": true
    },
    {
      "inputs": [],
      "name": "getManagerAddresses",
      "outputs": [
        {
          "internalType": "address[]",
          "name": "",
          "type": "address[]"
        }
      ],
      "stateMutability": "view",
      "type": "function",
      "constant": true
    },
    {
      "inputs": [],
      "name": "getDeviceAddresses",
      "outputs": [
        {
          "internalType": "address[]",
          "name": "",
          "type": "address[]"
        }
      ],
      "stateMutability": "view",
      "type": "function",
      "constant": true
    }
  ],
  "bytecode": "0x608060405234801561001057600080fd5b50614e5c806100206000396000f3fe608060405234801561001057600080fd5b506004361061012c5760003560e01c806392d9db8f116100ad578063e267e91a11610071578063e267e91a1461038a578063f2f4dfa6146103ba578063f6b4e4ef146103d6578063fdff9b4d146103f2578063fe3dcf08146104235761012c565b806392d9db8f146102d15780639fbf3add146102ed578063a3a57ea314610320578063ad0cff4d1461033c578063afe56b1b1461036c5761012c565b806355f75ef6116100f457806355f75ef6146102175780635607541e146102475780635fa8724b14610265578063659228c9146102815780636dee665b146102b55761012c565b80630a36f49d1461013157806310ff8e31146101665780633d584063146101985780634e1e332c146101c957806354beac9a146101e7575b600080fd5b61014b60048036038101906101469190613cb5565b61043f565b60405161015d96959493929190614656565b60405180910390f35b610180600480360381019061017b9190613e9c565b610570565b60405161018f939291906147fa565b60405180910390f35b6101b260048036038101906101ad9190613c8c565b610642565b6040516101c09291906147ca565b60405180910390f35b6101d161084e565b6040516101de91906146be565b60405180910390f35b61020160048036038101906101fc9190613cb5565b6109e1565b60405161020e9190614702565b60405180910390f35b610231600480360381019061022c9190613d40565b610aba565b60405161023e9190614702565b60405180910390f35b61024f6113bf565b60405161025c91906146e0565b60405180910390f35b61027f600480360381019061027a9190613e9c565b611417565b005b61029b60048036038101906102969190613c8c565b6117a5565b6040516102ac95949392919061471d565b60405180910390f35b6102cf60048036038101906102ca9190613ec5565b611ab7565b005b6102eb60048036038101906102e69190613cf1565b611e01565b005b61030760048036038101906103029190613cb5565b61244e565b604051610317949392919061477e565b60405180910390f35b61033a60048036038101906103359190613de1565b612a56565b005b61035660048036038101906103519190613e9c565b612c96565b6040516103639190614a98565b60405180910390f35b610374612cba565b60405161038191906146be565b60405180910390f35b6103a4600480360381019061039f9190613e9c565b612d48565b6040516103b1919061463b565b60405180910390f35b6103d460048036038101906103cf9190613ec5565b612d87565b005b6103f060048036038101906103eb9190613c8c565b613190565b005b61040c60048036038101906104079190613c8c565b613746565b60405161041a9291906147ca565b60405180910390f35b61043d60048036038101906104389190613e35565b613812565b005b6002602052816000526040600020602052806000526040600020600091509150508060000160009054906101000a900473ffffffffffffffffffffffffffffffffffffffff16908060010160009054906101000a900473ffffffffffffffffffffffffffffffffffffffff16908060020160009054906101000a900473ffffffffffffffffffffffffffffffffffffffff16908060030154908060040180546104e790614cdf565b80601f016020809104026020016040519081016040528092919081815260200182805461051390614cdf565b80156105605780601f1061053557610100808354040283529160200191610560565b820191906000526020600020905b81548152906001019060200180831161054357829003601f168201915b5050505050908060050154905086565b600160205280600052604060002060009150905080600001805461059390614cdf565b80601f01602080910402602001604051908101604052809291908181526020018280546105bf90614cdf565b801561060c5780601f106105e15761010080835404028352916020019161060c565b820191906000526020600020905b8154815290600101906020018083116105ef57829003601f168201915b5050505050908060010154908060020160009054906101000a900473ffffffffffffffffffffffffffffffffffffffff16905083565b606060008073ffffffffffffffffffffffffffffffffffffffff166000808573ffffffffffffffffffffffffffffffffffffffff1673ffffffffffffffffffffffffffffffffffffffff16815260200190815260200160002060010160009054906101000a900473ffffffffffffffffffffffffffffffffffffffff1673ffffffffffffffffffffffffffffffffffffffff161415610716576040517f08c379a000000000000000000000000000000000000000000000000000000000815260040161070d90614878565b60405180910390fd5b6000808473ffffffffffffffffffffffffffffffffffffffff1673ffffffffffffffffffffffffffffffffffffffff1681526020019081526020016000206000016000808573ffffffffffffffffffffffffffffffffffffffff1673ffffffffffffffffffffffffffffffffffffffff16815260200190815260200160002060010160009054906101000a900473ffffffffffffffffffffffffffffffffffffffff168180546107c590614cdf565b80601f01602080910402602001604051908101604052809291908181526020018280546107f190614cdf565b801561083e5780601f106108135761010080835404028352916020019161083e565b820191906000526020600020905b81548152906001019060200180831161082157829003601f168201915b5050505050915091509150915091565b6060600060048054905067ffffffffffffffff811115610897577f4e487b7100000000000000000000000000000000000000000000000000000000600052604160045260246000fd5b6040519080825280602002602001820160405280156108c55781602001602082028036833780820191505090505b50905060005b6004805490508110156109d9576001600060048381548110610916577f4e487b7100000000000000000000000000000000000000000000000000000000600052603260045260246000fd5b9060005260206000200154815260200190815260200160002060020160009054906101000a900473ffffffffffffffffffffffffffffffffffffffff1682828151811061098c577f4e487b7100000000000000000000000000000000000000000000000000000000600052603260045260246000fd5b602002602001019073ffffffffffffffffffffffffffffffffffffffff16908173ffffffffffffffffffffffffffffffffffffffff168152505080806109d190614d11565b9150506108cb565b508091505090565b60008073ffffffffffffffffffffffffffffffffffffffff16600260008573ffffffffffffffffffffffffffffffffffffffff1673ffffffffffffffffffffffffffffffffffffffff16815260200190815260200160002060008473ffffffffffffffffffffffffffffffffffffffff1673ffffffffffffffffffffffffffffffffffffffff16815260200190815260200160002060010160009054906101000a900473ffffffffffffffffffffffffffffffffffffffff1673ffffffffffffffffffffffffffffffffffffffff161415905092915050565b60008673ffffffffffffffffffffffffffffffffffffffff163373ffffffffffffffffffffffffffffffffffffffff1614610b2a576040517f08c379a0000000000000000000000000000000000000000000000000000000008152600401610b2190614a58565b60405180910390fd5b60008060005b600480549050811015610c4e578873ffffffffffffffffffffffffffffffffffffffff166001600060048481548110610b92577f4e487b7100000000000000000000000000000000000000000000000000000000600052603260045260246000fd5b9060005260206000200154815260200190815260200160002060020160009054906101000a900473ffffffffffffffffffffffffffffffffffffffff1673ffffffffffffffffffffffffffffffffffffffff161415610c3b576001925060048181548110610c29577f4e487b7100000000000000000000000000000000000000000000000000000000600052603260045260246000fd5b90600052602060002001549150610c4e565b8080610c4690614d11565b915050610b30565b5081610c8f576040517f08c379a0000000000000000000000000000000000000000000000000000000008152600401610c8690614a38565b60405180910390fd5b600073ffffffffffffffffffffffffffffffffffffffff166000808b73ffffffffffffffffffffffffffffffffffffffff1673ffffffffffffffffffffffffffffffffffffffff16815260200190815260200160002060010160009054906101000a900473ffffffffffffffffffffffffffffffffffffffff1673ffffffffffffffffffffffffffffffffffffffff161415610d60576040517f08c379a0000000000000000000000000000000000000000000000000000000008152600401610d5790614958565b60405180910390fd5b6000805b6001600084815260200190815260200160002060030180549050811015610e4d578a73ffffffffffffffffffffffffffffffffffffffff16600160008581526020019081526020016000206003018281548110610dea577f4e487b7100000000000000000000000000000000000000000000000000000000600052603260045260246000fd5b9060005260206000200160009054906101000a900473ffffffffffffffffffffffffffffffffffffffff1673ffffffffffffffffffffffffffffffffffffffff161415610e3a5760019150610e4d565b8080610e4590614d11565b915050610d64565b5080610e8e576040517f08c379a0000000000000000000000000000000000000000000000000000000008152600401610e8590614998565b60405180910390fd5b60008060005b600480549050811015610fb2578a73ffffffffffffffffffffffffffffffffffffffff166001600060048481548110610ef6577f4e487b7100000000000000000000000000000000000000000000000000000000600052603260045260246000fd5b9060005260206000200154815260200190815260200160002060020160009054906101000a900473ffffffffffffffffffffffffffffffffffffffff1673ffffffffffffffffffffffffffffffffffffffff161415610f9f576001925060048181548110610f8d577f4e487b7100000000000000000000000000000000000000000000000000000000600052603260045260246000fd5b90600052602060002001549150610fb2565b8080610faa90614d11565b915050610e94565b5081610ff3576040517f08c379a0000000000000000000000000000000000000000000000000000000008152600401610fea90614918565b60405180910390fd5b8973ffffffffffffffffffffffffffffffffffffffff168b73ffffffffffffffffffffffffffffffffffffffff161415611062576040517f08c379a0000000000000000000000000000000000000000000000000000000008152600401611059906148d8565b60405180910390fd5b61106c8b8b6109e1565b15806110f6575043600260008d73ffffffffffffffffffffffffffffffffffffffff1673ffffffffffffffffffffffffffffffffffffffff16815260200190815260200160002060008c73ffffffffffffffffffffffffffffffffffffffff1673ffffffffffffffffffffffffffffffffffffffff16815260200190815260200160002060050154105b611135576040517f08c379a000000000000000000000000000000000000000000000000000000000815260040161112c90614898565b60405180910390fd5b438711611177576040517f08c379a000000000000000000000000000000000000000000000000000000000815260040161116e90614a78565b60405180910390fd5b6040518060c001604052808d73ffffffffffffffffffffffffffffffffffffffff1681526020018c73ffffffffffffffffffffffffffffffffffffffff1681526020018b73ffffffffffffffffffffffffffffffffffffffff1681526020018a815260200189815260200188815250600260008d73ffffffffffffffffffffffffffffffffffffffff1673ffffffffffffffffffffffffffffffffffffffff16815260200190815260200160002060008c73ffffffffffffffffffffffffffffffffffffffff1673ffffffffffffffffffffffffffffffffffffffff16815260200190815260200160002060008201518160000160006101000a81548173ffffffffffffffffffffffffffffffffffffffff021916908373ffffffffffffffffffffffffffffffffffffffff16021790555060208201518160010160006101000a81548173ffffffffffffffffffffffffffffffffffffffff021916908373ffffffffffffffffffffffffffffffffffffffff16021790555060408201518160020160006101000a81548173ffffffffffffffffffffffffffffffffffffffff021916908373ffffffffffffffffffffffffffffffffffffffff16021790555060608201518160030155608082015181600401908051906020019061135d929190613a6c565b5060a082015181600501559050507f5bba5b304fe3c9158a84f200d0210f55da1da51dfee1aca1bec9885664f955d98c8c8c8c8c8c6040516113a496959493929190614656565b60405180910390a16001955050505050509695505050505050565b6060600480548060200260200160405190810160405280929190818152602001828054801561140d57602002820191906000526020600020905b8154815260200190600101908083116113f9575b5050505050905090565b600073ffffffffffffffffffffffffffffffffffffffff166001600083815260200190815260200160002060020160009054906101000a900473ffffffffffffffffffffffffffffffffffffffff1673ffffffffffffffffffffffffffffffffffffffff1614156114bd576040517f08c379a00000000000000000000000000000000000000000000000000000000081526004016114b490614858565b60405180910390fd5b60016000828152602001908152602001600020600080820160006114e19190613af2565b60018201600090556002820160006101000a81549073ffffffffffffffffffffffffffffffffffffffff02191690556003820160006115209190613b32565b505060005b6004805490508110156116b057816004828154811061156d577f4e487b7100000000000000000000000000000000000000000000000000000000600052603260045260246000fd5b9060005260206000200154141561169d5760008190505b60016004805490506115969190614c21565b8110156116495760046001826115ac9190614bcb565b815481106115e3577f4e487b7100000000000000000000000000000000000000000000000000000000600052603260045260246000fd5b906000526020600020015460048281548110611628577f4e487b7100000000000000000000000000000000000000000000000000000000600052603260045260246000fd5b9060005260206000200181905550808061164190614d11565b915050611584565b506004805480611682577f4e487b7100000000000000000000000000000000000000000000000000000000600052603160045260246000fd5b600190038181906000526020600020016000905590556116b0565b80806116a890614d11565b915050611525565b507fcb282cc082af9be57983eae41a72f0c54e886cd512044c20bd2efee8d36cd92c816040516116e09190614a98565b60405180910390a160005b60016000838152602001908152602001600020600301805490508110156117a15761178e8260016000858152602001908152602001600020600301838154811061175e577f4e487b7100000000000000000000000000000000000000000000000000000000600052603260045260246000fd5b9060005260206000200160009054906101000a900473ffffffffffffffffffffffffffffffffffffffff16612d87565b808061179990614d11565b9150506116eb565b5050565b60006060600080606060008060005b6004805490508110156118d2578873ffffffffffffffffffffffffffffffffffffffff166001600060048481548110611816577f4e487b7100000000000000000000000000000000000000000000000000000000600052603260045260246000fd5b9060005260206000200154815260200190815260200160002060020160009054906101000a900473ffffffffffffffffffffffffffffffffffffffff1673ffffffffffffffffffffffffffffffffffffffff1614156118bf5760019150600481815481106118ad577f4e487b7100000000000000000000000000000000000000000000000000000000600052603260045260246000fd5b906000526020600020015492506118d2565b80806118ca90614d11565b9150506117b4565b5080611913576040517f08c379a000000000000000000000000000000000000000000000000000000000815260040161190a906149d8565b60405180910390fd5b600180600084815260200190815260200160002060000160016000858152602001908152602001600020600101546001600086815260200190815260200160002060020160009054906101000a900473ffffffffffffffffffffffffffffffffffffffff166001600087815260200190815260200160002060030183805461199a90614cdf565b80601f01602080910402602001604051908101604052809291908181526020018280546119c690614cdf565b8015611a135780601f106119e857610100808354040283529160200191611a13565b820191906000526020600020905b8154815290600101906020018083116119f657829003601f168201915b5050505050935080805480602002602001604051908101604052809291908181526020018280548015611a9b57602002820191906000526020600020905b8160009054906101000a900473ffffffffffffffffffffffffffffffffffffffff1673ffffffffffffffffffffffffffffffffffffffff1681526020019060010190808311611a51575b5050505050905096509650965096509650505091939590929450565b600073ffffffffffffffffffffffffffffffffffffffff166000808373ffffffffffffffffffffffffffffffffffffffff1673ffffffffffffffffffffffffffffffffffffffff16815260200190815260200160002060010160009054906101000a900473ffffffffffffffffffffffffffffffffffffffff1673ffffffffffffffffffffffffffffffffffffffff161415611b88576040517f08c379a0000000000000000000000000000000000000000000000000000000008152600401611b7f906148b8565b60405180910390fd5b600073ffffffffffffffffffffffffffffffffffffffff166001600084815260200190815260200160002060020160009054906101000a900473ffffffffffffffffffffffffffffffffffffffff1673ffffffffffffffffffffffffffffffffffffffff161415611c2e576040517f08c379a0000000000000000000000000000000000000000000000000000000008152600401611c2590614858565b60405180910390fd5b60005b6001600084815260200190815260200160002060030180549050811015611d4c578173ffffffffffffffffffffffffffffffffffffffff16600160008581526020019081526020016000206003018281548110611cb7577f4e487b7100000000000000000000000000000000000000000000000000000000600052603260045260246000fd5b9060005260206000200160009054906101000a900473ffffffffffffffffffffffffffffffffffffffff1673ffffffffffffffffffffffffffffffffffffffff161415611d39576040517f08c379a0000000000000000000000000000000000000000000000000000000008152600401611d3090614938565b60405180910390fd5b8080611d4490614d11565b915050611c31565b5060016000838152602001908152602001600020600301819080600181540180825580915050600190039060005260206000200160009091909190916101000a81548173ffffffffffffffffffffffffffffffffffffffff021916908373ffffffffffffffffffffffffffffffffffffffff1602179055507fc89f4a161714af08348f32b39384ad828c23923bfb4afd596f64ddb1aa5bb7f68282604051611df5929190614ab3565b60405180910390a15050565b600073ffffffffffffffffffffffffffffffffffffffff166000808573ffffffffffffffffffffffffffffffffffffffff1673ffffffffffffffffffffffffffffffffffffffff16815260200190815260200160002060010160009054906101000a900473ffffffffffffffffffffffffffffffffffffffff1673ffffffffffffffffffffffffffffffffffffffff161415611ed2576040517f08c379a0000000000000000000000000000000000000000000000000000000008152600401611ec990614878565b60405180910390fd5b60008060005b600480549050811015611ff6578473ffffffffffffffffffffffffffffffffffffffff166001600060048481548110611f3a577f4e487b7100000000000000000000000000000000000000000000000000000000600052603260045260246000fd5b9060005260206000200154815260200190815260200160002060020160009054906101000a900473ffffffffffffffffffffffffffffffffffffffff1673ffffffffffffffffffffffffffffffffffffffff161415611fe3576001915060048181548110611fd1577f4e487b7100000000000000000000000000000000000000000000000000000000600052603260045260246000fd5b90600052602060002001549250611ff6565b8080611fee90614d11565b915050611ed8565b5080612037576040517f08c379a000000000000000000000000000000000000000000000000000000000815260040161202e90614a38565b60405180910390fd5b60008060005b60048054905081101561215b578573ffffffffffffffffffffffffffffffffffffffff16600160006004848154811061209f577f4e487b7100000000000000000000000000000000000000000000000000000000600052603260045260246000fd5b9060005260206000200154815260200190815260200160002060020160009054906101000a900473ffffffffffffffffffffffffffffffffffffffff1673ffffffffffffffffffffffffffffffffffffffff161415612148576001915060048181548110612136577f4e487b7100000000000000000000000000000000000000000000000000000000600052603260045260246000fd5b9060005260206000200154925061215b565b808061215390614d11565b91505061203d565b508061219c576040517f08c379a000000000000000000000000000000000000000000000000000000000815260040161219390614918565b60405180910390fd5b6121a686866109e1565b6121e5576040517f08c379a00000000000000000000000000000000000000000000000000000000081526004016121dc906149b8565b60405180910390fd5b3373ffffffffffffffffffffffffffffffffffffffff16600260008873ffffffffffffffffffffffffffffffffffffffff1673ffffffffffffffffffffffffffffffffffffffff16815260200190815260200160002060008773ffffffffffffffffffffffffffffffffffffffff1673ffffffffffffffffffffffffffffffffffffffff16815260200190815260200160002060000160009054906101000a900473ffffffffffffffffffffffffffffffffffffffff1673ffffffffffffffffffffffffffffffffffffffff16146122f2576040517f08c379a00000000000000000000000000000000000000000000000000000000081526004016122e9906148f8565b60405180910390fd5b600260008773ffffffffffffffffffffffffffffffffffffffff1673ffffffffffffffffffffffffffffffffffffffff16815260200190815260200160002060008673ffffffffffffffffffffffffffffffffffffffff1673ffffffffffffffffffffffffffffffffffffffff168152602001908152602001600020600080820160006101000a81549073ffffffffffffffffffffffffffffffffffffffff02191690556001820160006101000a81549073ffffffffffffffffffffffffffffffffffffffff02191690556002820160006101000a81549073ffffffffffffffffffffffffffffffffffffffff021916905560038201600090556004820160006123fc9190613af2565b6005820160009055505060008490507fab0c0a2f55462a1318f51aa9087bf078e6b5323b2c8cd1e35fe6e6af95ef4f76818960405161243c929190614ab3565b60405180910390a15050505050505050565b6000606060008060008060005b600480549050811015612579578873ffffffffffffffffffffffffffffffffffffffff1660016000600484815481106124bd577f4e487b7100000000000000000000000000000000000000000000000000000000600052603260045260246000fd5b9060005260206000200154815260200190815260200160002060020160009054906101000a900473ffffffffffffffffffffffffffffffffffffffff1673ffffffffffffffffffffffffffffffffffffffff161415612566576001915060048181548110612554577f4e487b7100000000000000000000000000000000000000000000000000000000600052603260045260246000fd5b90600052602060002001549250612579565b808061257190614d11565b91505061245b565b50806125ba576040517f08c379a00000000000000000000000000000000000000000000000000000000081526004016125b190614a38565b60405180910390fd5b60008060005b6004805490508110156126de578973ffffffffffffffffffffffffffffffffffffffff166001600060048481548110612622577f4e487b7100000000000000000000000000000000000000000000000000000000600052603260045260246000fd5b9060005260206000200154815260200190815260200160002060020160009054906101000a900473ffffffffffffffffffffffffffffffffffffffff1673ffffffffffffffffffffffffffffffffffffffff1614156126cb5760019150600481815481106126b9577f4e487b7100000000000000000000000000000000000000000000000000000000600052603260045260246000fd5b906000526020600020015492506126de565b80806126d690614d11565b9150506125c0565b508061271f576040517f08c379a000000000000000000000000000000000000000000000000000000000815260040161271690614918565b60405180910390fd5b6127298a8a6109e1565b612768576040517f08c379a000000000000000000000000000000000000000000000000000000000815260040161275f906149b8565b60405180910390fd5b600260008b73ffffffffffffffffffffffffffffffffffffffff1673ffffffffffffffffffffffffffffffffffffffff16815260200190815260200160002060008a73ffffffffffffffffffffffffffffffffffffffff1673ffffffffffffffffffffffffffffffffffffffff168152602001908152602001600020600501544310612829576040517f08c379a000000000000000000000000000000000000000000000000000000000815260040161282090614a18565b60405180910390fd5b6001600260008c73ffffffffffffffffffffffffffffffffffffffff1673ffffffffffffffffffffffffffffffffffffffff16815260200190815260200160002060008b73ffffffffffffffffffffffffffffffffffffffff1673ffffffffffffffffffffffffffffffffffffffff168152602001908152602001600020600401600260008d73ffffffffffffffffffffffffffffffffffffffff1673ffffffffffffffffffffffffffffffffffffffff16815260200190815260200160002060008c73ffffffffffffffffffffffffffffffffffffffff1673ffffffffffffffffffffffffffffffffffffffff1681526020019081526020016000206003015443600260008f73ffffffffffffffffffffffffffffffffffffffff1673ffffffffffffffffffffffffffffffffffffffff16815260200190815260200160002060008e73ffffffffffffffffffffffffffffffffffffffff1673ffffffffffffffffffffffffffffffffffffffff168152602001908152602001600020600501546129b59190614c21565b8280546129c190614cdf565b80601f01602080910402602001604051908101604052809291908181526020018280546129ed90614cdf565b8015612a3a5780601f10612a0f57610100808354040283529160200191612a3a565b820191906000526020600020905b815481529060010190602001808311612a1d57829003601f168201915b5050505050925097509750975097505050505092959194509250565b600073ffffffffffffffffffffffffffffffffffffffff166000808473ffffffffffffffffffffffffffffffffffffffff1673ffffffffffffffffffffffffffffffffffffffff16815260200190815260200160002060010160009054906101000a900473ffffffffffffffffffffffffffffffffffffffff1673ffffffffffffffffffffffffffffffffffffffff1614612b26576040517f08c379a0000000000000000000000000000000000000000000000000000000008152600401612b1d90614838565b60405180910390fd5b60405180604001604052808281526020018373ffffffffffffffffffffffffffffffffffffffff168152506000808473ffffffffffffffffffffffffffffffffffffffff1673ffffffffffffffffffffffffffffffffffffffff1681526020019081526020016000206000820151816000019080519060200190612bab929190613a6c565b5060208201518160010160006101000a81548173ffffffffffffffffffffffffffffffffffffffff021916908373ffffffffffffffffffffffffffffffffffffffff1602179055509050506003829080600181540180825580915050600190039060005260206000200160009091909190916101000a81548173ffffffffffffffffffffffffffffffffffffffff021916908373ffffffffffffffffffffffffffffffffffffffff1602179055507f817955f9f0501a3b74608755c4f6d4c31e4e0750c5c1a277431e8ff89ecfa63a8183604051612c8a9291906147ca565b60405180910390a15050565b60048181548110612ca657600080fd5b906000526020600020016000915090505481565b60606003805480602002602001604051908101604052809291908181526020018280548015612d3e57602002820191906000526020600020905b8160009054906101000a900473ffffffffffffffffffffffffffffffffffffffff1673ffffffffffffffffffffffffffffffffffffffff1681526020019060010190808311612cf4575b5050505050905090565b60038181548110612d5857600080fd5b906000526020600020016000915054906101000a900473ffffffffffffffffffffffffffffffffffffffff1681565b6000805b6001600085815260200190815260200160002060030180549050811015612e74578273ffffffffffffffffffffffffffffffffffffffff16600160008681526020019081526020016000206003018281548110612e11577f4e487b7100000000000000000000000000000000000000000000000000000000600052603260045260246000fd5b9060005260206000200160009054906101000a900473ffffffffffffffffffffffffffffffffffffffff1673ffffffffffffffffffffffffffffffffffffffff161415612e615760019150612e74565b8080612e6c90614d11565b915050612d8b565b5080612eb5576040517f08c379a0000000000000000000000000000000000000000000000000000000008152600401612eac90614978565b60405180910390fd5b60005b6001600085815260200190815260200160002060030180549050811015613151578273ffffffffffffffffffffffffffffffffffffffff16600160008681526020019081526020016000206003018281548110612f3e577f4e487b7100000000000000000000000000000000000000000000000000000000600052603260045260246000fd5b9060005260206000200160009054906101000a900473ffffffffffffffffffffffffffffffffffffffff1673ffffffffffffffffffffffffffffffffffffffff16141561313e5760016000858152602001908152602001600020600301600180600087815260200190815260200160002060030180549050612fc09190614c21565b81548110612ff7577f4e487b7100000000000000000000000000000000000000000000000000000000600052603260045260246000fd5b9060005260206000200160009054906101000a900473ffffffffffffffffffffffffffffffffffffffff16600160008681526020019081526020016000206003018281548110613070577f4e487b7100000000000000000000000000000000000000000000000000000000600052603260045260246000fd5b9060005260206000200160006101000a81548173ffffffffffffffffffffffffffffffffffffffff021916908373ffffffffffffffffffffffffffffffffffffffff16021790555060016000858152602001908152602001600020600301805480613104577f4e487b7100000000000000000000000000000000000000000000000000000000600052603160045260246000fd5b6001900381819060005260206000200160006101000a81549073ffffffffffffffffffffffffffffffffffffffff02191690559055613151565b808061314990614d11565b915050612eb8565b507f9f063c4cb344012934bd425d88776223b67b8d783467a4827001da012a94a2c58383604051613183929190614ab3565b60405180910390a1505050565b600073ffffffffffffffffffffffffffffffffffffffff166000808373ffffffffffffffffffffffffffffffffffffffff1673ffffffffffffffffffffffffffffffffffffffff16815260200190815260200160002060010160009054906101000a900473ffffffffffffffffffffffffffffffffffffffff1673ffffffffffffffffffffffffffffffffffffffff161415613261576040517f08c379a0000000000000000000000000000000000000000000000000000000008152600401613258906148b8565b60405180910390fd5b6000808273ffffffffffffffffffffffffffffffffffffffff1673ffffffffffffffffffffffffffffffffffffffff168152602001908152602001600020600080820160006132b09190613af2565b6001820160006101000a81549073ffffffffffffffffffffffffffffffffffffffff0219169055505060005b60038054905081101561352c578173ffffffffffffffffffffffffffffffffffffffff166003828154811061333a577f4e487b7100000000000000000000000000000000000000000000000000000000600052603260045260246000fd5b9060005260206000200160009054906101000a900473ffffffffffffffffffffffffffffffffffffffff1673ffffffffffffffffffffffffffffffffffffffff1614156135195760008190505b60016003805490506133999190614c21565b8110156134a65760036001826133af9190614bcb565b815481106133e6577f4e487b7100000000000000000000000000000000000000000000000000000000600052603260045260246000fd5b9060005260206000200160009054906101000a900473ffffffffffffffffffffffffffffffffffffffff166003828154811061344b577f4e487b7100000000000000000000000000000000000000000000000000000000600052603260045260246000fd5b9060005260206000200160006101000a81548173ffffffffffffffffffffffffffffffffffffffff021916908373ffffffffffffffffffffffffffffffffffffffff160217905550808061349e90614d11565b915050613387565b5060038054806134df577f4e487b7100000000000000000000000000000000000000000000000000000000600052603160045260246000fd5b6001900381819060005260206000200160006101000a81549073ffffffffffffffffffffffffffffffffffffffff0219169055905561352c565b808061352490614d11565b9150506132dc565b5060005b60048054905081101561370b5760005b600160006004848154811061357e577f4e487b7100000000000000000000000000000000000000000000000000000000600052603260045260246000fd5b90600052602060002001548152602001908152602001600020600301805490508110156136f7578273ffffffffffffffffffffffffffffffffffffffff1660016000600485815481106135fa577f4e487b7100000000000000000000000000000000000000000000000000000000600052603260045260246000fd5b90600052602060002001548152602001908152602001600020600301828154811061364e577f4e487b7100000000000000000000000000000000000000000000000000000000600052603260045260246000fd5b9060005260206000200160009054906101000a900473ffffffffffffffffffffffffffffffffffffffff1673ffffffffffffffffffffffffffffffffffffffff1614156136e4576136e3600483815481106136d2577f4e487b7100000000000000000000000000000000000000000000000000000000600052603260045260246000fd5b906000526020600020015484612d87565b5b80806136ef90614d11565b915050613540565b50808061370390614d11565b915050613530565b507f8620023455b66f89dacaa211c6cf9ad4b0f806c6ee69b56392c3b49e9821594d8160405161373b919061463b565b60405180910390a150565b600060205280600052604060002060009150905080600001805461376990614cdf565b80601f016020809104026020016040519081016040528092919081815260200182805461379590614cdf565b80156137e25780601f106137b7576101008083540402835291602001916137e2565b820191906000526020600020905b8154815290600101906020018083116137c557829003601f168201915b5050505050908060010160009054906101000a900473ffffffffffffffffffffffffffffffffffffffff16905082565b600073ffffffffffffffffffffffffffffffffffffffff166001600084815260200190815260200160002060020160009054906101000a900473ffffffffffffffffffffffffffffffffffffffff1673ffffffffffffffffffffffffffffffffffffffff16146138b7576040517f08c379a00000000000000000000000000000000000000000000000000000000081526004016138ae906149f8565b60405180910390fd5b60008067ffffffffffffffff8111156138f9577f4e487b7100000000000000000000000000000000000000000000000000000000600052604160045260246000fd5b6040519080825280602002602001820160405280156139275781602001602082028036833780820191505090505b50905060405180608001604052808581526020018481526020018373ffffffffffffffffffffffffffffffffffffffff16815260200182815250600160008581526020019081526020016000206000820151816000019080519060200190613990929190613a6c565b506020820151816001015560408201518160020160006101000a81548173ffffffffffffffffffffffffffffffffffffffff021916908373ffffffffffffffffffffffffffffffffffffffff16021790555060608201518160030190805190602001906139fe929190613b53565b5090505060048390806001815401808255809150506001900390600052602060002001600090919091909150557f1dd4c713a668293cb0eccc1e65ae64c7e02de68a303822393d582d5c6c4fb521848484604051613a5e939291906147fa565b60405180910390a150505050565b828054613a7890614cdf565b90600052602060002090601f016020900481019282613a9a5760008555613ae1565b82601f10613ab357805160ff1916838001178555613ae1565b82800160010185558215613ae1579182015b82811115613ae0578251825591602001919060010190613ac5565b5b509050613aee9190613bdd565b5090565b508054613afe90614cdf565b6000825580601f10613b105750613b2f565b601f016020900490600052602060002090810190613b2e9190613bdd565b5b50565b5080546000825590600052602060002090810190613b509190613bdd565b50565b828054828255906000526020600020908101928215613bcc579160200282015b82811115613bcb5782518260006101000a81548173ffffffffffffffffffffffffffffffffffffffff021916908373ffffffffffffffffffffffffffffffffffffffff16021790555091602001919060010190613b73565b5b509050613bd99190613bdd565b5090565b5b80821115613bf6576000816000905550600101613bde565b5090565b6000613c0d613c0884614b0d565b614adc565b905082815260208101848484011115613c2557600080fd5b613c30848285614c9d565b509392505050565b600081359050613c4781614df8565b92915050565b600082601f830112613c5e57600080fd5b8135613c6e848260208601613bfa565b91505092915050565b600081359050613c8681614e0f565b92915050565b600060208284031215613c9e57600080fd5b6000613cac84828501613c38565b91505092915050565b60008060408385031215613cc857600080fd5b6000613cd685828601613c38565b9250506020613ce785828601613c38565b9150509250929050565b600080600060608486031215613d0657600080fd5b6000613d1486828701613c38565b9350506020613d2586828701613c38565b9250506040613d3686828701613c38565b9150509250925092565b60008060008060008060c08789031215613d5957600080fd5b6000613d6789828a01613c38565b9650506020613d7889828a01613c38565b9550506040613d8989828a01613c38565b9450506060613d9a89828a01613c77565b935050608087013567ffffffffffffffff811115613db757600080fd5b613dc389828a01613c4d565b92505060a0613dd489828a01613c77565b9150509295509295509295565b60008060408385031215613df457600080fd5b6000613e0285828601613c38565b925050602083013567ffffffffffffffff811115613e1f57600080fd5b613e2b85828601613c4d565b9150509250929050565b600080600060608486031215613e4a57600080fd5b600084013567ffffffffffffffff811115613e6457600080fd5b613e7086828701613c4d565b9350506020613e8186828701613c77565b9250506040613e9286828701613c38565b9150509250925092565b600060208284031215613eae57600080fd5b6000613ebc84828501613c77565b91505092915050565b60008060408385031215613ed857600080fd5b6000613ee685828601613c77565b9250506020613ef785828601613c38565b9150509250929050565b6000613f0d8383613f31565b60208301905092915050565b6000613f25838361461d565b60208301905092915050565b613f3a81614c55565b82525050565b613f4981614c55565b82525050565b6000613f5a82614b5d565b613f648185614b98565b9350613f6f83614b3d565b8060005b83811015613fa0578151613f878882613f01565b9750613f9283614b7e565b925050600181019050613f73565b5085935050505092915050565b6000613fb882614b68565b613fc28185614ba9565b9350613fcd83614b4d565b8060005b83811015613ffe578151613fe58882613f19565b9750613ff083614b8b565b925050600181019050613fd1565b5085935050505092915050565b61401481614c67565b82525050565b600061402582614b73565b61402f8185614bba565b935061403f818560208601614cac565b61404881614de7565b840191505092915050565b6000614060601b83614bba565b91507f4d616e6167657220616c726561647920726567697374657265642e00000000006000830152602082019050919050565b60006140a0601683614bba565b91507f446576696365206e6f7420726567697374657265642e000000000000000000006000830152602082019050919050565b60006140e0601783614bba565b91507f4d616e6167657220646f6573206e6f742065786973742e0000000000000000006000830152602082019050919050565b6000614120603e83614bba565b91507f436f6e73747261696e65642064657669636520697320616c726561647920616c60008301527f6c6f77656420746f2061636365737320746865206e65772064657669636500006020830152604082019050919050565b6000614186601783614bba565b91507f4d616e61676572206e6f7420726567697374657265642e0000000000000000006000830152602082019050919050565b60006141c6602e83614bba565b91507f436f6e73747261696e65642064657669636520616e64206e657720646576696360008301527f6520617265207468652073616d650000000000000000000000000000000000006020830152604082019050919050565b600061422c603383614bba565b91507f4f6e6c7920746865206d616e616765722077686f20637265617465642074686560008301527f2072756c652063616e207265766f6b65206974000000000000000000000000006020830152604082019050919050565b6000614292601983614bba565b91507f4e65772064657669636520646f6573206e6f74206578697374000000000000006000830152602082019050919050565b60006142d2602083614bba565b91507f4d616e6167657220616c726561647920616464656420746f206465766963652e6000830152602082019050919050565b6000614312601983614bba565b91507f4d616e61676572206973206e6f742072656769737465726564000000000000006000830152602082019050919050565b6000614352601c83614bba565b91507f4d616e61676572206e6f7420616464656420746f206465766963652e000000006000830152602082019050919050565b6000614392602e83614bba565b91507f4d616e61676572206973206e6f7420616464656420746f2074686520636f6e7360008301527f747261696e6564206465766963650000000000000000000000000000000000006020830152604082019050919050565b60006143f8602c83614bba565b91507f4e6f2072756c652065786973747320666f722074686520676976656e2070616960008301527f72206f66206465766963657300000000000000000000000000000000000000006020830152604082019050919050565b600061445e601583614bba565b91507f44657669636520646f6573206e6f7420657869737400000000000000000000006000830152602082019050919050565b600061449e601a83614bba565b91507f44657669636520616c726561647920726567697374657265642e0000000000006000830152602082019050919050565b60006144de603683614bba565b91507f4e6f20756e657870697265642072756c652065786973747320666f722074686560008301527f20676976656e2070616972206f662064657669636573000000000000000000006020830152604082019050919050565b6000614544602183614bba565b91507f436f6e73747261696e65642064657669636520646f6573206e6f74206578697360008301527f74000000000000000000000000000000000000000000000000000000000000006020830152604082019050919050565b60006145aa601f83614bba565b91507f4f6e6c7920746865206d616e616765722063616e2061646420612072756c65006000830152602082019050919050565b60006145ea602083614bba565b91507f45787069726174696f6e20626c6f636b20697320696e2074686520706173742e6000830152602082019050919050565b61462681614c93565b82525050565b61463581614c93565b82525050565b60006020820190506146506000830184613f40565b92915050565b600060c08201905061466b6000830189613f40565b6146786020830188613f40565b6146856040830187613f40565b614692606083018661462c565b81810360808301526146a4818561401a565b90506146b360a083018461462c565b979650505050505050565b600060208201905081810360008301526146d88184613f4f565b905092915050565b600060208201905081810360008301526146fa8184613fad565b905092915050565b6000602082019050614717600083018461400b565b92915050565b600060a082019050614732600083018861400b565b8181036020830152614744818761401a565b9050614753604083018661462c565b6147606060830185613f40565b81810360808301526147728184613f4f565b90509695505050505050565b6000608082019050614793600083018761400b565b81810360208301526147a5818661401a565b90506147b4604083018561462c565b6147c1606083018461462c565b95945050505050565b600060408201905081810360008301526147e4818561401a565b90506147f36020830184613f40565b9392505050565b60006060820190508181036000830152614814818661401a565b9050614823602083018561462c565b6148306040830184613f40565b949350505050565b6000602082019050818103600083015261485181614053565b9050919050565b6000602082019050818103600083015261487181614093565b9050919050565b60006020820190508181036000830152614891816140d3565b9050919050565b600060208201905081810360008301526148b181614113565b9050919050565b600060208201905081810360008301526148d181614179565b9050919050565b600060208201905081810360008301526148f1816141b9565b9050919050565b600060208201905081810360008301526149118161421f565b9050919050565b6000602082019050818103600083015261493181614285565b9050919050565b60006020820190508181036000830152614951816142c5565b9050919050565b6000602082019050818103600083015261497181614305565b9050919050565b6000602082019050818103600083015261499181614345565b9050919050565b600060208201905081810360008301526149b181614385565b9050919050565b600060208201905081810360008301526149d1816143eb565b9050919050565b600060208201905081810360008301526149f181614451565b9050919050565b60006020820190508181036000830152614a1181614491565b9050919050565b60006020820190508181036000830152614a31816144d1565b9050919050565b60006020820190508181036000830152614a5181614537565b9050919050565b60006020820190508181036000830152614a718161459d565b9050919050565b60006020820190508181036000830152614a91816145dd565b9050919050565b6000602082019050614aad600083018461462c565b92915050565b6000604082019050614ac8600083018561462c565b614ad56020830184613f40565b9392505050565b6000604051905081810181811067ffffffffffffffff82111715614b0357614b02614db8565b5b8060405250919050565b600067ffffffffffffffff821115614b2857614b27614db8565b5b601f19601f8301169050602081019050919050565b6000819050602082019050919050565b6000819050602082019050919050565b600081519050919050565b600081519050919050565b600081519050919050565b6000602082019050919050565b6000602082019050919050565b600082825260208201905092915050565b600082825260208201905092915050565b600082825260208201905092915050565b6000614bd682614c93565b9150614be183614c93565b9250827fffffffffffffffffffffffffffffffffffffffffffffffffffffffffffffffff03821115614c1657614c15614d5a565b5b828201905092915050565b6000614c2c82614c93565b9150614c3783614c93565b925082821015614c4a57614c49614d5a565b5b828203905092915050565b6000614c6082614c73565b9050919050565b60008115159050919050565b600073ffffffffffffffffffffffffffffffffffffffff82169050919050565b6000819050919050565b82818337600083830152505050565b60005b83811015614cca578082015181840152602081019050614caf565b83811115614cd9576000848401525b50505050565b60006002820490506001821680614cf757607f821691505b60208210811415614d0b57614d0a614d89565b5b50919050565b6000614d1c82614c93565b91507fffffffffffffffffffffffffffffffffffffffffffffffffffffffffffffffff821415614d4f57614d4e614d5a565b5b600182019050919050565b7f4e487b7100000000000000000000000000000000000000000000000000000000600052601160045260246000fd5b7f4e487b7100000000000000000000000000000000000000000000000000000000600052602260045260246000fd5b7f4e487b7100000000000000000000000000000000000000000000000000000000600052604160045260246000fd5b6000601f19601f8301169050919050565b614e0181614c55565b8114614e0c57600080fd5b50565b614e1881614c93565b8114614e2357600080fd5b5056fea2646970667358221220b32cace5790197b6a3ef553d6af4ea799a20eda3c080739b333a0f94860c79a764736f6c63430008000033",
  "immutableReferences": {},
  "source": "pragma solidity ^0.8.0;\r\n\r\ncontract access_control {\r\n\r\n    // Structs to store information about managers, devices and rules\r\n    struct Manager {\r\n        string name;\r\n        address managerAddress;\r\n    }\r\n\r\n    struct Device {\r\n    string name;\r\n    uint deviceId;\r\n    address deviceAddress;\r\n    address[] managers;\r\n}\r\n\r\n    struct Rule {\r\n        address managerAddress;\r\n        address constrainedDeviceAddress;\r\n        address newDeviceAddress;\r\n        uint resource;\r\n        string accessRights;\r\n        uint expirationBlock;\r\n    }\r\n\r\n    // Mapping to store information about registered managers, devices and rules\r\n    mapping(address => Manager) public managers;\r\n    mapping(uint => Device) public devices;\r\n    mapping(address => mapping(address => Rule)) public rules;\r\n\r\n    address[] public registeredManagerAddresses;\r\n    uint[] public registeredDevicesIds;\r\n\r\n    // Events to notify clients of important contract events\r\n    event ManagerRegistered(string name, address managerAddress);\r\n    event DeviceRegistered(string name, uint deviceId, address deviceAddress);\r\n    event ManagerAddedToDevice(uint deviceId, address managerAddress);\r\n    event ManagerRemovedFromDevice(uint deviceId, address managerAddress);\r\n    event RuleAdded(address managerAddress, address constrainedDeviceAddress, address newDeviceAddress, uint resource, string accessRights, uint expirationBlock);\r\n    event ManagerDeRegistered(address managerAddress);\r\n    event DeviceDeRegistered(uint deviceId);\r\n    event PermissionRevoked(uint deviceId, address managerAddress);\r\n\r\n    // Function to register a manager\r\n      function registerManager(address managerAddress, string memory name) public {\r\n        require(managers[managerAddress].managerAddress == address(0), \"Manager already registered.\");\r\n        managers[managerAddress] = Manager(name, managerAddress);\r\n        registeredManagerAddresses.push(managerAddress);\r\n        emit ManagerRegistered(name, managerAddress);\r\n    }\r\n\r\n    //Function to register a device\r\n    function registerDevice(string memory name, uint deviceId, address deviceAddress) public {\r\n        //Check that device is not already registered\r\n        require(devices[deviceId].deviceAddress == address(0), \"Device already registered.\");\r\n        address[] memory emptyArray = new address[](0);\r\n        devices[deviceId] = Device(name, deviceId, deviceAddress, emptyArray);\r\n        registeredDevicesIds.push(deviceId);\r\n        emit DeviceRegistered(name, deviceId , deviceAddress);\r\n    }\r\n\r\n    //Function to add a manager to a device\r\n\r\n    function addManagerToDevice(uint deviceId, address managerAddress) public {\r\n        //Check that manager is registered\r\n        require(managers[managerAddress].managerAddress != address(0), \"Manager not registered.\");\r\n        //Check that device is registered\r\n        require(devices[deviceId].deviceAddress != address(0), \"Device not registered.\");\r\n        //Check that the manager is not already added to the device but first check for the null devices[deviceId] case\r\n        for(uint i=0;i<devices[deviceId].managers.length;i++){\r\n        require(devices[deviceId].managers[i] != managerAddress, \"Manager already added to device.\");\r\n        }\r\n        \r\n        //Add the manager to the device\r\n        devices[deviceId].managers.push(managerAddress);\r\n\r\n        //Add the device to the manager\r\n        emit ManagerAddedToDevice(deviceId, managerAddress);\r\n    }\r\n    \r\n\r\n    // Function to remove a manager from a device\r\n    function removeManagerFromDevice(uint deviceId, address managerAddress) public {\r\n        //Check that manager is added to the device\r\n            bool managerFound = false;\r\n            for(uint i=0;i<devices[deviceId].managers.length;i++){\r\n                if(devices[deviceId].managers[i] == managerAddress){\r\n                    managerFound = true;\r\n                    break;\r\n                }\r\n            }\r\n            require(managerFound, \"Manager not added to device.\");\r\n\r\n        //Remove the manager from the device\r\n        for (uint i = 0; i < devices[deviceId].managers.length; i++) {\r\n            if (devices[deviceId].managers[i] == managerAddress) {\r\n                devices[deviceId].managers[i] = devices[deviceId].managers[devices[deviceId].managers.length - 1];\r\n                devices[deviceId].managers.pop();\r\n                break;\r\n            }\r\n        }\r\n        emit ManagerRemovedFromDevice(deviceId, managerAddress);\r\n    }\r\n\r\n    function addRule(address managerAddress, address constrainedDeviceAddress, address newDeviceAddress, uint resourceAccess, string memory accessRights, uint expirationBlocks) public returns (bool) {\r\n    // Check that the caller of the function is the manager\r\n    require(msg.sender == managerAddress, \"Only the manager can add a rule\");\r\n\r\n    //Find the constrained device index in devices array\r\n    bool constrainedDeviceFound = false;  \r\n    uint constrainedDeviceIndex = 0;\r\n    for (uint i = 0; i < registeredDevicesIds.length; i++) {\r\n        if (devices[registeredDevicesIds[i]].deviceAddress == constrainedDeviceAddress) {\r\n            constrainedDeviceFound = true;\r\n            constrainedDeviceIndex = registeredDevicesIds[i];\r\n            break;\r\n        }\r\n    }\r\n\r\n    // Check that the constrained device is registered\r\n    require(constrainedDeviceFound, \"Constrained device does not exist\");\r\n\r\n    // Check that the manager is registered\r\n    require(managers[managerAddress].managerAddress != address(0), \"Manager is not registered\");\r\n\r\n    // Check that the manager is added to the constrained device\r\n    bool managerFound = false;\r\n    for (uint i = 0; i < devices[constrainedDeviceIndex].managers.length; i++) {\r\n        if (devices[constrainedDeviceIndex].managers[i] == managerAddress) {\r\n            managerFound = true;\r\n            break;\r\n        }\r\n    }\r\n    require(managerFound, \"Manager is not added to the constrained device\");\r\n\r\n    //Find the new device's index in devices array\r\n    bool newDeviceFound = false;\r\n    uint newDeviceIndex = 0;\r\n     for (uint i = 0; i < registeredDevicesIds.length; i++) {\r\n        if (devices[registeredDevicesIds[i]].deviceAddress == newDeviceAddress) {\r\n            newDeviceFound = true;\r\n            newDeviceIndex = registeredDevicesIds[i];\r\n            break;\r\n        }\r\n    }\r\n\r\n    // Check that the new device is registered\r\n    require(newDeviceFound, \"New device does not exist\");\r\n\r\n    // Check that the constrained device is not the new device\r\n    require(constrainedDeviceAddress != newDeviceAddress, \"Constrained device and new device are the same\");\r\n\r\n    // Check that the constrained device is not already allowed to access the new device\r\n    require(!isAllowedDevice(constrainedDeviceAddress, newDeviceAddress) || rules[constrainedDeviceAddress][newDeviceAddress].expirationBlock < block.number, \"Constrained device is already allowed to access the new device\");\r\n\r\n    // Check that the expiration block is not in the past\r\n    require(expirationBlocks > block.number, \"Expiration block is in the past.\");\r\n\r\n    // Add the rule\r\n    rules[constrainedDeviceAddress][newDeviceAddress] = Rule(managerAddress, constrainedDeviceAddress, newDeviceAddress, resourceAccess, accessRights, expirationBlocks);\r\n    emit RuleAdded(managerAddress, constrainedDeviceAddress, newDeviceAddress, resourceAccess, accessRights, expirationBlocks);\r\n    return true;\r\n\r\n}\r\n\r\n    function isAllowedDevice(address constrainedDeviceAddress, address newDeviceAddress) public view returns (bool) {\r\n        return rules[constrainedDeviceAddress][newDeviceAddress].constrainedDeviceAddress != address(0);\r\n    }\r\n\r\n    \r\n    function deregisterManager (address managerAddress) public {\r\n        require(managers[managerAddress].managerAddress != address(0), \"Manager not registered.\");\r\n        delete managers[managerAddress];\r\n\r\n        // Remove manager address from the array\r\n        for (uint i = 0; i < registeredManagerAddresses.length; i++) {\r\n         if (registeredManagerAddresses[i] == managerAddress) {\r\n            // Shift the remaining elements one position to the left\r\n            for (uint j = i; j < registeredManagerAddresses.length - 1; j++) {\r\n                registeredManagerAddresses[j] = registeredManagerAddresses[j+1];\r\n            }\r\n            // Remove the last element\r\n            registeredManagerAddresses.pop();\r\n            break;\r\n        }\r\n    }\r\n\r\n        //Remove manager from the list of managed devices for each device that has the current manager\r\n        for (uint i = 0; i < registeredDevicesIds.length; i++) {\r\n            for (uint j = 0; j < devices[registeredDevicesIds[i]].managers.length; j++) {\r\n                if (devices[registeredDevicesIds[i]].managers[j] == managerAddress) {\r\n                    removeManagerFromDevice(registeredDevicesIds[i], managerAddress);\r\n                }\r\n            }\r\n        }\r\n\r\n        emit ManagerDeRegistered(managerAddress);\r\n    }\r\n    \r\n\r\n    function removeDevice (uint deviceId) public {\r\n        require(devices[deviceId].deviceAddress != address(0), \"Device not registered.\");\r\n        delete devices[deviceId];\r\n        \r\n        // Remove device id from the array\r\n        for (uint i = 0; i < registeredDevicesIds.length; i++) {\r\n         if (registeredDevicesIds[i] == deviceId) {\r\n            // Shift the remaining elements one position to the left\r\n            for (uint j = i; j < registeredDevicesIds.length - 1; j++) {\r\n                registeredDevicesIds[j] = registeredDevicesIds[j+1];\r\n            }\r\n            // Remove the last element\r\n            registeredDevicesIds.pop();\r\n            break;\r\n        }\r\n    }\r\n        emit DeviceDeRegistered(deviceId);\r\n\r\n    //remove device from the list of managed devices for each manager\r\n    for (uint i = 0; i < devices[deviceId].managers.length; i++) {\r\n        removeManagerFromDevice(deviceId, devices[deviceId].managers[i]);\r\n    }\r\n\r\n    }\r\n\r\n    //function to revoke permission\r\n    function revokePermission(address manager, address constrainedDevice, address newDevice) public {\r\n        //Check that manager exists\r\n        require(managers[manager].managerAddress != address(0), \"Manager does not exist.\");\r\n\r\n        //Find the constrained device index in devices array\r\n        uint constrainedDeviceIndex = 0;\r\n        bool constrainedDeviceFound = false;\r\n          for (uint i = 0; i < registeredDevicesIds.length; i++) {\r\n        if (devices[registeredDevicesIds[i]].deviceAddress == constrainedDevice) {\r\n            constrainedDeviceFound = true;\r\n            constrainedDeviceIndex = registeredDevicesIds[i];\r\n            break;\r\n        }\r\n        }\r\n\r\n        require(constrainedDeviceFound, \"Constrained device does not exist\");\r\n\r\n        //Find the new device's index in devices array\r\n        uint newDeviceIndex = 0;\r\n        bool newDeviceFound = false;\r\n         for (uint i = 0; i < registeredDevicesIds.length; i++) {\r\n        if (devices[registeredDevicesIds[i]].deviceAddress == newDevice) {\r\n            newDeviceFound = true;\r\n            newDeviceIndex = registeredDevicesIds[i];\r\n            break;\r\n        }\r\n        }\r\n        require(newDeviceFound, \"New device does not exist\");\r\n\r\n        // Check if there is an existing rule for the given pair of devices\r\n        require(isAllowedDevice(constrainedDevice, newDevice), \"No rule exists for the given pair of devices\");\r\n\r\n        // Ensure the sender is the manager who created the rule\r\n        require(rules[constrainedDevice][newDevice].managerAddress == msg.sender, \"Only the manager who created the rule can revoke it\");\r\n\r\n        // Remove the rule\r\n        delete rules[constrainedDevice][newDevice];\r\n\r\n        //Logic that deviceId equals to the index of the device in the devices array\r\n        uint deviceId = constrainedDeviceIndex;\r\n\r\n        // Emit an event to notify clients of the rule revocation\r\n        emit PermissionRevoked(deviceId, manager);\r\n    \r\n    }\r\n\r\n\r\n        function getManager(address managerAddress) public view returns (string memory, address) {\r\n        //Check that manager exists\r\n        require(managers[managerAddress].managerAddress != address(0), \"Manager does not exist.\");\r\n        return (managers[managerAddress].name, managers[managerAddress].managerAddress);\r\n    }\r\n\r\n        function queryPermission(address constrainedDevice, address newDevice) public view returns (bool, string memory, uint, uint) {\r\n        //Find the constrained device index in devices array\r\n        uint constrainedDeviceIndex = 0;\r\n        bool constrainedDeviceFound = false;\r\n         for (uint i = 0; i < registeredDevicesIds.length; i++) {\r\n        if (devices[registeredDevicesIds[i]].deviceAddress == constrainedDevice) {\r\n            constrainedDeviceFound = true;\r\n            constrainedDeviceIndex = registeredDevicesIds[i];\r\n            break;\r\n        }\r\n        }\r\n\r\n        require(constrainedDeviceFound, \"Constrained device does not exist\");\r\n\r\n        //Find the new device's index in devices array\r\n        uint newDeviceIndex = 0;\r\n        bool newDeviceFound = false;\r\n          for (uint i = 0; i < registeredDevicesIds.length; i++) {\r\n        if (devices[registeredDevicesIds[i]].deviceAddress == newDevice) {\r\n            newDeviceFound = true;\r\n            newDeviceIndex = registeredDevicesIds[i];\r\n            break;\r\n        }\r\n        }\r\n        require(newDeviceFound, \"New device does not exist\");\r\n\r\n        // Check if there is an existing rule for the given pair of devices\r\n        require(isAllowedDevice(constrainedDevice, newDevice), \"No rule exists for the given pair of devices\"); {\r\n        }\r\n\r\n        // Check if the rule has expired\r\n        require(block.number < rules[constrainedDevice][newDevice].expirationBlock, \"No unexpired rule exists for the given pair of devices\"); {\r\n        }\r\n\r\n\r\n        return (true, rules[constrainedDevice][newDevice].accessRights, rules[constrainedDevice][newDevice].resource, rules[constrainedDevice][newDevice].expirationBlock - block.number);\r\n\r\n        }\r\n\r\n        //Function to check whether a device is registered\r\n        function isDeviceRegistered(address deviceAddress) public view returns (bool, string memory, uint, address, address[] memory) {\r\n        //Find the device index in devices array\r\n        uint deviceIndex = 0;\r\n        bool deviceFound = false;\r\n          for (uint i = 0; i < registeredDevicesIds.length; i++) {\r\n        if (devices[registeredDevicesIds[i]].deviceAddress == deviceAddress) {\r\n            deviceFound = true;\r\n            deviceIndex = registeredDevicesIds[i];\r\n            break;\r\n        }\r\n        }\r\n\r\n        require(deviceFound, \"Device does not exist\");\r\n        \r\n        return (true, devices[deviceIndex].name, devices[deviceIndex].deviceId, devices[deviceIndex].deviceAddress, devices[deviceIndex].managers);\r\n        }\r\n\r\n        //Function to return the Ids of the registered device\r\n        function getDeviceIds() public view returns (uint[] memory) {\r\n        return registeredDevicesIds;\r\n        }\r\n\r\n        //Function to return the addresses of the registered managers\r\n        function getManagerAddresses() public view returns (address[] memory) {\r\n        return registeredManagerAddresses;\r\n        }\r\n\r\n        //Function to return the addresses of the registered devices\r\n        function getDeviceAddresses() public view returns (address[] memory) {\r\n        address[] memory deviceAddresses = new address[](registeredDevicesIds.length);\r\n        for (uint i = 0; i < registeredDevicesIds.length; i++) {\r\n            deviceAddresses[i] = devices[registeredDevicesIds[i]].deviceAddress;\r\n        }\r\n        return deviceAddresses;\r\n        }\r\n\r\n\r\n}\r\n\r\n    ",
  "sourcePath": "C:\\Users\\Omerta\\proof_of_concept_code\\backend\\contracts\\access_control.sol",
  "compiler": {
    "name": "solc",
    "version": "0.8.0+commit.c7dfd78e.Emscripten.clang"
  },
  "schemaVersion": "3.4.13",
  "updatedAt": "2023-05-27T11:58:05.411Z",
  "networkType": "ethereum",
  "devdoc": {
    "kind": "dev",
    "methods": {},
    "version": 1
  },
  "userdoc": {
    "kind": "user",
    "methods": {},
    "version": 1
  }
}